:020000040800F2
:1000000000500020390C000881020008830200081B
:10001000850200088702000889020008000000002D
:100020000000000000000000000000008B0200083B
:100030008D020008000000008F02000891020008F5
:10004000810C0008810C0008810C0008810C00085C
:10005000810C0008810C0008810C0008810C00084C
:10006000810C0008810C0008810C0008810C00083C
:10007000810C0008810C0008810C0008810C00082C
:10008000810C0008810C0008810C0008810C00081C
:10009000810C0008810C0008810C0008810C00080C
:1000A000810C0008810C0008810C0008810C0008FC
:1000B000810C0008810C0008810C0008810C0008EC
:1000C000810C0008810C0008810C0008810C0008DC
:1000D000810C0008810C0008810C0008810C0008CC
:1000E000810C0008810C0008810C00080000000051
:1000F0000000000000000000000000000000000000
:0C01000000000000000000005FF808F1A3
:10010C0010B5054C237833B9044B13B10448AFF345
:10011C0000800123237010BD3C040020000000006F
:10012C004C0E000808B5034B1BB103490348AFF351
:10013C00008008BD00000000400400204C0E0008A8
:10014C0030B587B00E4B9A6942F008029A619B69F0
:10015C0003F008030193019B2025029501230393CF
:10016C00049303230593074C02A9204600F04AF997
:10017C0000222946204600F055FA07B030BD00BFDA
:10018C0000100240000C014082B0064B9A6942F00C
:10019C0004029A619B6903F004030193019B02B072
:1001AC00704700BF0010024072B6FEE700B591B078
:1001BC002422002107A800F083FD00230193029361
:1001CC000393049305930223069301230A931023AC
:1001DC000B9306A800F042FA68B90F230193002193
:1001EC00029103910491059101A800F069FC20B9DA
:1001FC0011B05DF804FBFFF7D7FFFFF7D5FF000048
:10020C0008B500F06BF8FFF7D1FFFFF799FFFFF788
:10021C00BBFF064C00232360C82000F083F80123A9
:10022C002360C82000F07EF8F3E700BF94812142E0
:10023C0082B00E4B9A6942F001029A619A6902F0FF
:10024C0001020092009ADA6942F08052DA61DB69AD
:10025C0003F080530193019B054A536823F0E0633C
:10026C0043F00073536002B0704700BF00100240AF
:10027C0000000140FEE7FEE7FEE7FEE7FEE7704701
:10028C007047704708B500F03BF808BD7047000098
:10029C0010B504460E4B18784FF47A73B3FBF0F399
:1002AC000C4A1068B0FBF3F000F096F868B90F2C0C
:1002BC0001D901200AE0002221464FF0FF3000F066
:1002CC0057F8054B1C60002000E0012010BD00BF5A
:1002DC0004000020000000200800002008B5074A98
:1002EC00136843F010031360032000F02FF80F2065
:1002FC00FFF7CEFFFFF79CFF002008BD0020024057
:10030C00034A1168034B1B780B441360704700BF02
:10031C005804002004000020014B1868704700BFEF
:10032C005804002038B50446FFF7F6FF0546B4F133
:10033C00FF3F02D0044B1B781C44FFF7EDFF401B22
:10034C00A042FAD338BD00BF04000020074AD3688E
:10035C0023F4E0631B041B0C000200F4E060034375
:10036C0043F0BF6343F40033D360704700ED00E00B
:10037C0030B4174BDB68C3F30223C3F10704042C1E
:10038C0028BF04241D1D062D18D9033B4FF0FF3543
:10039C0005FA04F421EA0401994005FA03F322EA70
:1003AC000303194300280BDB0901C9B200F16040BB
:1003BC0000F5614080F8001330BC70470023E5E77E
:1003CC0000F00F000901C9B2024B1954F4E700BF49
:1003DC0000ED00E014ED00E00138B0F1807F0AD2AE
:1003EC00064B5860064AF02182F8231000209860D2
:1003FC0007221A6070470120704700BF10E000E030
:10040C0000ED00E0F0B482B000252C46A3E07F4F55
:10041C00BB4210D007D97E4FBB420CD007F58037BA
:10042C00BB4208D013E0A7F58017BB4203D007F5F9
:10043C007027BB4207D18B68002B58D0012B51D0B1
:10044C004261082503E0A7F58017BB42F3D0FF2ECD
:10045C004FD88446FF2E4FD8A200DCF800300F276F
:10046C00974023EA070305FA02F21343CCF8003055
:10047C004B6813F0805F6DD0664B9A6942F00102B5
:10048C009A619B6903F001030193019BA208971CDD
:10049C00614B53F8273004F00307BF004FF00F0CEB
:1004AC000CFA07FC23EA0C0C5C4B98422AD003F59F
:1004BC008063984200F08A8003F58063984200F0D4
:1004CC00878003F5806398421AD004231BE0CD6823
:1004DC00BDE7CD680435BAE7CD680835B7E7CD6818
:1004EC000C35B4E702610825B1E70025AFE7042518
:1004FC00ADE700F1040CADE7A4F108029200ACE703
:10050C00032300E00023BB4043EA0C030232424FBA
:10051C0047F822304B6813F4801F5BD0404A936835
:10052C00334393604B6813F4001F59D03C4AD36893
:10053C003343D3604B6813F4003F57D0384A5368A9
:10054C00334353604B6813F4803F55D0344A1368DF
:10055C001E43166001340B6833FA04F252D00122A8
:10056C00A24003EA020632EA0303F3D14B68122BD2
:10057C003FF64DAF122B3FF66AAF01A757F823F0A9
:10058C0043040008DB040008E5040008F704000835
:10059C005B0400085B0400085B0400085B040008B3
:1005AC005B0400085B0400085B0400085B040008A3
:1005BC005B0400085B0400085B0400085B04000893
:1005CC005B040008DF040008EB04000801239AE731
:1005DC00022398E7124A936823EA06039360A1E783
:1005EC000F4AD36823EA0603D360A3E70C4A536887
:1005FC0023EA06035360A5E7094A136823EA0606B3
:10060C001660A7E702B0F0BC704700BF00002210D4
:10061C0000003110001002400000014000080140B1
:10062C00000401400AB1016170470904016170477F
:10063C0082B0084B1B68084AA2FB03235B0A00FB31
:10064C0003F3019300BF019B5A1E0192002BF9D1B9
:10065C0002B0704700000020D34D6210002800F05B
:10066C00F18170B582B00446036813F0010F2CD0F1
:10067C00AA4B5B6803F00C03042B1DD0A74B5B68E3
:10068C0003F00C03082B12D06368B3F5803F41D004
:10069C00002B55D103F1804303F504331A6822F47F
:1006AC0080321A601A6822F480221A6037E09B4B61
:1006BC005B6813F4803FE7D0984B1B6813F4003F42
:1006CC0003D06368002B00F0BF81236813F0020F86
:1006DC0075D0924B5B6813F00C0F5FD08F4B5B683F
:1006EC0003F00C03082B54D02369002B00F08980F5
:1006FC008B4B01221A60FFF70FFE0546874B1B68D8
:10070C0013F0020F74D1FFF707FE401B0228F5D936
:10071C0003209EE1814A136843F4803313606368BD
:10072C0043B3FFF7F9FD05467C4B1B6813F4003F00
:10073C00CBD1FFF7F1FD401B6428F5D9032088E1EC
:10074C00B3F5A02F09D0754B1A6822F480321A60C9
:10075C001A6822F480221A60E1E703F18043A3F5C2
:10076C003C331A6842F480221A601A6842F48032D0
:10077C001A60D4E7FFF7D0FD0546684B1B6813F4ED
:10078C00003FA2D0FFF7C8FD401B6428F5D9032019
:10079C005FE1624B5B6813F4803FA5D15F4B1B6834
:1007AC0013F0020F03D02369012B40F04F815B4AF9
:1007BC00136823F0F803616943EAC10313602368EB
:1007CC0013F0080F32D0A369002B45D0554B0122F2
:1007DC001A60FFF7A1FD0546504B5B6A13F0020F40
:1007EC0021D1FFF799FD401B0228F5D9032030E1F8
:1007FC004A4A136823F0F803616943EAC1031360A2
:10080C00DDE7474B00221A60FFF786FD0546434B98
:10081C001B6813F0020FD2D0FFF77EFD401B02289D
:10082C00F5D9032015E10120FFF702FF236813F02F
:10083C00040F00F09780394BDB6913F0805F1DD1FA
:10084C00364BDA6942F08052DA61DB6903F080538F
:10085C000193019B012512E0324B00221A60FFF735
:10086C005BFD05462D4B5B6A13F0020FDED0FFF7E4
:10087C0053FD401B0228F5D90320EAE000252A4B42
:10088C001B6813F4807F11D0E368012B22D0002B5E
:10089C0038D103F1804303F504331A6A22F00102C4
:1008AC001A621A6A22F004021A6218E01E4A1368CD
:1008BC0043F480731360FFF72FFD06461A4B1B6839
:1008CC0013F4807FE0D1FFF727FD801B6428F5D956
:1008DC000320BEE0114A136A43F001031362E3687C
:1008EC0073B3FFF719FD06460C4B1B6A13F0020F8E
:1008FC0037D1FFF711FD801B41F288339842F3D9B1
:10090C000320A6E0052B11D0044B1A6A22F0010239
:10091C001A621A6A22F004021A62E0E7001002401E
:10092C000000424280044242007000404D4B1A6A63
:10093C0042F004021A621A6A42F001021A62CEE70D
:10094C00FFF7EAFC0646474B1B6A13F0020F08D070
:10095C00FFF7E2FC801B41F288339842F3D9032065
:10096C0077E0E5B9E369002B72D03E4A526802F099
:10097C000C02082A56D0022B17D03B4B00221A60CF
:10098C00FFF7CAFC0446374B1B6813F0007F47D0B7
:10099C00FFF7C2FC001B0228F5D9032059E0314AAD
:1009AC00D36923F08053D361DCE72F4B00221A600C
:1009BC00FFF7B2FC05462B4B1B6813F0007F06D0EB
:1009CC00FFF7AAFC401B0228F5D9032041E0236A5B
:1009DC00B3F5803F1AD023494B6823F47413226A71
:1009EC00606A024313434B601F4B01221A60FFF7EE
:1009FC0093FC04461B4B1B6813F0007F0ED1FFF7D2
:100A0C008BFC001B0228F5D9032022E0154A536801
:100A1C0023F40033A1680B435360DCE7002018E09B
:100A2C00002016E0012B16D00E4B5B6803F48031CE
:100A3C00226A914211D103F47013626A93420ED16F
:100A4C00002006E001207047012002E0012000E0B8
:100A5C00002002B070BD0120FBE70120F9E7012066
:100A6C00F7E700BF00100240600042420F4B5B688A
:100A7C0003F00C02082A01D00D487047C3F38342DF
:100A8C000C498A5C13F4803F0BD0084B5B68C3F3B2
:100A9C0040430949CB5C064800FB02F0B0FBF3F085
:100AAC007047064800FB02F0704700BF0010024080
:100ABC0000127A00740E0008840E000800093D0034
:100ACC00002800F0A08070B50D460446524B1B6800
:100ADC0003F007038B420BD24F4A136823F0070332
:100AEC000B431360136803F007038B4240F08D80B7
:100AFC00236813F0020F17D013F0040F04D0474AE9
:100B0C00536843F4E0635360236813F0080F04D078
:100B1C00424A536843F460535360404A536823F08D
:100B2C00F003A1680B435360236813F0010F31D01D
:100B3C006368012B20D0022B25D0384A126812F0A2
:100B4C00020F64D035494A6822F0030213434B600C
:100B5C00FFF7E2FB0646314B5B6803F00C0362685F
:100B6C00B3EB820F16D0FFF7D7FB801B41F2883313
:100B7C009842F0D9032045E0284A126812F4003F4D
:100B8C00E0D101203EE0254A126812F0007FD9D155
:100B9C00012037E0204B1B6803F00703AB420AD956
:100BAC001D4A136823F007032B431360136803F0EB
:100BBC000703AB422DD1236813F0040F06D0174A5C
:100BCC00536823F4E063E1680B435360236813F02C
:100BDC00080F07D0114A536823F46053216943EA84
:100BEC00C1035360FFF742FF0C4B5B68C3F3031365
:100BFC000B4AD35CD8400B4B18600B4B1868FFF7B3
:100C0C0047FB002070BD012070470120FAE701204E
:100C1C00F8E70120F6E700BF002002400010024078
:100C2C00640E00080000002008000020FFF72EFBD7
:100C3C000B480C490C4A002302E0D458C45004332E
:100C4C00C4188C42F9D3094A094C002301E0136003
:100C5C000432A242FBD300F00FF8FFF7D1FA704731
:100C6C00000000203C040020980E00083C040020EA
:100C7C0080040020FEE7000070B50D4E0D4D761B74
:100C8C00B61006D0002455F8043B01349847A64210
:100C9C00F9D1094E094D00F0D3F8761BB61006D0E9
:100CAC00002455F8043B01349847A642F9D170BD95
:100CBC008C0E00088C0E0008940E00088C0E000898
:100CCC00F0B4860746D0541E002A3CD00346CAB264
:100CDC0001E0013C37D303F8012B9D07F9D1032C1C
:100CEC002AD9CDB245EA05250F2C45EA054534D95C
:100CFC00A4F1100222F00F0C03F12007160967442F
:100D0C0003F1100242E9045542E902551032BA428D
:100D1C00F8D1721C14F00C0F03EB021204F00F0646
:100D2C0013D0331F23F003030433134442F8045B42
:100D3C009342FBD106F003042CB1CAB21C4403F855
:100D4C00012B9C42FBD1F0BC704734461346002C5F
:100D5C00F3D1F8E714460346C1E71A462646E0E706
:100D6C00024B13B1024800F005B8704700000000B8
:100D7C008D0D0008002301461A46184600F01AB8DB
:100D8C0038B5084B084D5B1B9C1007D0043B1D4429
:100D9C00013C55F804399847002CF9D1BDE838408E
:100DAC0000F054B8980E0008940E0008704700BF6D
:100DBC00704700BF2DE9F047DFF880A00646DAF84F
:100DCC00000098460F469146FFF7F0FF1A4B1B6840
:100DDC00D3F8484124B365681F2D26DC5EB96B1C23
:100DEC000235DAF80000636044F82570FFF7E0FF85
:100DFC000020BDE8F087012304EB8501C1F8889041
:100E0C00D4F88821AB401A43022EC4F88821C1F8CB
:100E1C000881E4D1D4F88C211343C4F88C31DEE77B
:100E2C0003F5A674C3F84841D5E7DAF80000FFF7DC
:100E3C00BFFF4FF0FF30DCE7880E000838040020BD
:100E4C00F8B500BFF8BC08BC9E467047F8B500BFAB
:080E5C00F8BC08BC9E4670477B
:100E64000000000000000000010203040607080956
:100E740002030405060708090A0B0C0D0E0F1010D7
:080E8400010200001000002033
:080E8C006D0D000831010008A2
:040E94000D01000844
:100E98000024F40001000000100000000000000021
:100EA80000000000FC02002064030020CC030020A6
:100EB800000000000000000000000000000000002A
:100EC800000000000000000000000000000000001A
:100ED800000000000000000000000000000000000A
:100EE80000000000000000000000000000000000FA
:100EF80000000000000000000000000000000000EA
:100F080000000000000000000000000000000000D9
:100F180000000000000000000000000000000000C9
:100F280000000000000000000000000000000000B9
:100F380000000000000000000000000000000000A9
:100F48000000000000000000010000000000000098
:100F58000E33CDAB34126DE6ECDE05000B0000005D
:100F68000000000000000000000000000000000079
:100F78000000000000000000000000000000000069
:100F88000000000000000000000000000000000059
:100F98000000000000000000000000000000000049
:0C12C80000000000000000005C0400209A
:0400000508000C39AA
:00000001FF
