:020000040800F2
:1000000000500020D5130008190400081B04000844
:100010001D0400081F04000821040008000000005F
:1000200000000000000000000000000023040008A1
:100030002504000800000000270400082904000827
:100040001D1400081D1400081D1400081D140008CC
:100050001D1400081D1400081D1400081D140008BC
:100060001D1400081D1400081D1400081D140008AC
:100070001D1400081D1400081D1400081D1400089C
:100080001D1400081D1400081D1400081D1400088C
:100090001D1400081D1400081D1400081D1400087C
:1000A0001D1400081D1400081D1400081D1400086C
:1000B0001D1400084D0100081D1400081D1400083F
:1000C0001D1400081D1400081D1400081D1400084C
:1000D0001D1400081D1400081D1400081D1400083C
:1000E0001D1400081D1400081D1400080000000065
:1000F0000000000000000000000000000000000000
:0C01000000000000000000005FF808F1A3
:10010C0010B5054C237833B9044B13B10448AFF345
:10011C0000800123237010BD3C040020000000006F
:10012C00E815000808B5034B1BB103490348AFF3AE
:10013C00008008BD0000000040040020E815000805
:10014C0008B5084B1B681B6913F0010F00D108BDE3
:10015C002021054800F032FB024B1B686FF00102B6
:10016C001A61F4E7580400200008014070B588B00B
:10017C000646002401940294039404940594069476
:10018C0007940D4D4FF080432B606960AC60E860C4
:10019C00284600F0CDFF60230193760802960223D7
:1001AC000393224601A9284601F020F8214628464F
:1001BC0001F09CF808B070BDA00400200368B3F1F6
:1001CC00804F00D0704700B587B003F504339A69AF
:1001DC0042F004029A619A6902F004020092009AB9
:1001EC00DA6942F00102DA61DB6903F00103019381
:1001FC00019B012302930222039204930323059390
:10020C0002A9034800F0CAF907B05DF804FB00BF6F
:10021C000008014000B587B00C4B9A6942F004020B
:10022C009A619B6903F004030193019B4FF4807363
:10023C0002930123039303220592049302A9044819
:10024C0000F0ACF907B05DF804FB00BF00100240F1
:10025C000008014082B00A4B9A6942F004029A618C
:10026C009A6902F004020092009A9A6942F008021C
:10027C009A619B6903F008030193019B02B07047DC
:10028C000010024072B6FEE708B50A480A4B03603C
:10029C000A4B436000238360C3604FF480420261C9
:1002AC0043618361C361036200F092FA00B908BD37
:1002BC00FFF7E8FFE804002000540040A08601008E
:1002CC0000B591B02422002107A801F0C7F8002343
:1002DC000193029303930493059302230693012342
:1002EC000A9310230B9306A800F066FB68B90F2342
:1002FC0001930021029103910491059101A800F052
:10030C008DFD20B911B05DF804FBFFF7BBFFFFF7C3
:10031C00B9FF38B500F0AEF8FFF77CFFFFF7D0FF60
:10032C00FFF798FFFFF7B0FF472140F2F310FFF7FC
:10033C001DFF0125002405E0013CA4B209E04FF0AB
:10034C0080435C630A2000F0B9F8002DF4D001342E
:10035C00A4B2B4F5967F00D90025002CEFD101256D
:10036C00EDE7000082B00E4B9A6942F001029A61EF
:10037C009A6902F001020092009ADA6942F0805206
:10038C00DA61DB6903F080530193019B054A5368E2
:10039C0023F0E06343F00073536002B0704700BF7A
:1003AC00001002400000014010B586B000230293FB
:1003BC000393049305930268114B9A4201D006B043
:1003CC0010BD104CA36943F00803A361A36903F0AB
:1003DC0008030093009BC02302931223039303236F
:1003EC00059302A9084800F0D9F8E36943F4001317
:1003FC00E361E36903F400130193019BDFE700BFA2
:10040C000054004000100240000C0140FEE7FEE7E3
:10041C00FEE7FEE7FEE770477047704708B500F04F
:10042C003BF808BD7047000010B504460E4B187819
:10043C004FF47A73B3FBF0F30C4A1068B0FBF3F093
:10044C0000F096F868B90F2C01D901200AE00022BF
:10045C0021464FF0FF3000F057F8054B1C60002090
:10046C0000E0012010BD00BF0400002000000020AF
:10047C000800002008B5074A136843F01003136006
:10048C00032000F02FF80F20FFF7CEFFFFF76AFFD5
:10049C00002008BD00200240034A1168034B1B7862
:1004AC000B441360704700BF3C0500200400002083
:1004BC00014B1868704700BF3C05002038B5044656
:1004CC00FFF7F6FF0546B4F1FF3F02D0044B1B7853
:1004DC001C44FFF7EDFF401BA042FAD338BD00BF10
:1004EC0004000020074AD36823F4E0631B041B0CB0
:1004FC00000200F4E060034343F0BF6343F40033B5
:10050C00D360704700ED00E030B4174BDB68C3F3E9
:10051C000223C3F10704042C28BF04241D1D062D3F
:10052C0018D9033B4FF0FF3505FA04F421EA040116
:10053C00994005FA03F322EA0303194300280BDB65
:10054C000901C9B200F1604000F5614080F8001368
:10055C0030BC70470023E5E700F00F000901C9B279
:10056C00024B1954F4E700BF00ED00E014ED00E07D
:10057C000138B0F1807F0AD2064B5860064AF02150
:10058C0082F823100020986007221A60704701201F
:10059C00704700BF10E000E000ED00E0F0B482B066
:1005AC0000252C46A3E07F4FBB4210D007D97E4FCD
:1005BC00BB420CD007F58037BB4208D013E0A7F53F
:1005CC008017BB4203D007F57027BB4207D18B685D
:1005DC00002B58D0012B51D04261082503E0A7F520
:1005EC008017BB42F3D0FF2E4FD88446FF2E4FD836
:1005FC00A200DCF800300F27974023EA070305FA26
:10060C0002F21343CCF800304B6813F0805F6DD0CE
:10061C00664B9A6942F001029A619B6903F00103EF
:10062C000193019BA208971C614B53F8273004F0EF
:10063C000307BF004FF00F0C0CFA07FC23EA0C0C5D
:10064C005C4B98422AD003F58063984200F08A8074
:10065C0003F58063984200F0878003F5806398422D
:10066C001AD004231BE0CD68BDE7CD680435BAE78A
:10067C00CD680835B7E7CD680C35B4E702610825BD
:10068C00B1E70025AFE70425ADE700F1040CADE7B9
:10069C00A4F108029200ACE7032300E00023BB4066
:1006AC0043EA0C030232424F47F822304B6813F4F2
:1006BC00801F5BD0404A9368334393604B6813F4BC
:1006CC00001F59D03C4AD3683343D3604B6813F4B2
:1006DC00003F57D0384A5368334353604B6813F488
:1006EC00803F55D0344A13681E43166001340B68A2
:1006FC0033FA04F252D00122A24003EA020632EA93
:10070C000303F3D14B68122B3FF64DAF122B3FF680
:10071C006AAF01A757F823F0DB0500087306000841
:10072C007D0600088F060008F3050008F305000895
:10073C00F3050008F3050008F3050008F3050008AD
:10074C00F3050008F3050008F3050008F30500089D
:10075C00F3050008F3050008F30500087706000808
:10076C008306000801239AE7022398E7124A93684C
:10077C0023EA06039360A1E70F4AD36823EA060332
:10078C00D360A3E70C4A536823EA06035360A5E73A
:10079C00094A136823EA06061660A7E702B0F0BC04
:1007AC00704700BF00002210000031100010024002
:1007BC00000001400008014000040140C36801EA48
:1007CC00030221EA030141EA024101617047000082
:1007DC00002800F0CC80F8B5044690F83D30002B92
:1007EC0077D0242384F83D302268136823F001036A
:1007FC0013602268136843F4004313602268136883
:10080C0023F40043136000F0C5FB62685A4B9A4214
:10081C0064D85A4B98428CBF00230123002B40F024
:10082C00A880574DA5FB0035AF0C2668716821F0E8
:10083C003F0141EA9541716021680B6A23F03F0347
:10084C0065684D4A95424FD87A1C13430B62256854
:10085C00E96921F44F4121F0FF016368464A934254
:10086C004CD801385B00B0FBF3F0013040F6FC7360
:10087C00184278D0C0F30B030B43EB6121680B6873
:10088C0023F0C003E269206A024313430B60216822
:10089C008B6823F4034323F0FF032269E0680243CF
:1008AC0013438B602168CB6823F0FF036269A06956
:1008BC0002431343CB602268136843F001031360B7
:1008CC0000202064202384F83D30206384F83E000F
:1008DC00F8BD80F83C30FFF767FD82E7294B984262
:1008EC008CBF0023012399E74FF4967202FB07F2A9
:1008FC00254DA5FB025292090132A6E7A268BAB9AE
:10090C00461E03EB4307B6FBF7F60136C6F30B06A0
:10091C00B6FA86F6760946BBC2B9421E03EB430310
:10092C00B2FBF3F20132C2F30B0242F40043A3E731
:10093C00461E03EB830707EB8707B6FBF7F601367A
:10094C00C6F30B06B6FA86F67609E4E7421E03EB0D
:10095C00830303EB8303B2FBF3F20132C2F30B020A
:10096C0042F4404388E7042386E7012384E701200F
:10097C0070470120ACE700BFA08601007F841E00F9
:10098C0083DE1B43FF083D00D34D621082B0084B41
:10099C001B68084AA2FB03235B0A00FB03F30193C9
:1009AC0000BF019B5A1E0192002BF9D102B0704777
:1009BC0000000020D34D6210002800F0F18170B5CA
:1009CC0082B00446036813F0010F2CD0AA4B5B686D
:1009DC0003F00C03042B1DD0A74B5B6803F00C0336
:1009EC00082B12D06368B3F5803F41D0002B55D152
:1009FC0003F1804303F504331A6822F480321A6041
:100A0C001A6822F480221A6037E09B4B5B6813F45F
:100A1C00803FE7D0984B1B6813F4003F03D063680A
:100A2C00002B00F0BF81236813F0020F75D0924B9E
:100A3C005B6813F00C0F5FD08F4B5B6803F00C03FB
:100A4C00082B54D02369002B00F089808B4B01229A
:100A5C001A60FFF72DFD0546874B1B6813F0020F3C
:100A6C0074D1FFF725FD401B0228F5D903209EE128
:100A7C00814A136843F480331360636843B3FFF710
:100A8C0017FD05467C4B1B6813F4003FCBD1FFF7D9
:100A9C000FFD401B6428F5D9032088E1B3F5A02F86
:100AAC0009D0754B1A6822F480321A601A6822F445
:100ABC0080221A60E1E703F18043A3F53C331A6806
:100ACC0042F480221A601A6842F480321A60D4E729
:100ADC00FFF7EEFC0546684B1B6813F4003FA2D0F1
:100AEC00FFF7E6FC401B6428F5D903205FE1624B5D
:100AFC005B6813F4803FA5D15F4B1B6813F0020FAA
:100B0C0003D02369012B40F04F815B4A136823F01B
:100B1C00F803616943EAC1031360236813F0080FFB
:100B2C0032D0A369002B45D0554B01221A60FFF738
:100B3C00BFFC0546504B5B6A13F0020F21D1FFF747
:100B4C00B7FC401B0228F5D9032030E14A4A136850
:100B5C0023F0F803616943EAC1031360DDE7474BF7
:100B6C0000221A60FFF7A4FC0546434B1B6813F0E8
:100B7C00020FD2D0FFF79CFC401B0228F5D90320B2
:100B8C0015E10120FFF702FF236813F0040F00F0BA
:100B9C009780394BDB6913F0805F1DD1364BDA69D6
:100BAC0042F08052DA61DB6903F080530193019BC0
:100BBC00012512E0324B00221A60FFF779FC054642
:100BCC002D4B5B6A13F0020FDED0FFF771FC401B5C
:100BDC000228F5D90320EAE000252A4B1B6813F400
:100BEC00807F11D0E368012B22D0002B38D103F188
:100BFC00804303F504331A6A22F001021A621A6A5E
:100C0C0022F004021A6218E01E4A136843F480733F
:100C1C001360FFF74DFC06461A4B1B6813F4807FDC
:100C2C00E0D1FFF745FC801B6428F5D90320BEE01A
:100C3C00114A136A43F001031362E36873B3FFF7BD
:100C4C0037FC06460C4B1B6A13F0020F37D1FFF72B
:100C5C002FFC801B41F288339842F3D90320A6E085
:100C6C00052B11D0044B1A6A22F001021A621A6A7F
:100C7C0022F004021A62E0E7001002400000424237
:100C8C0080044242007000404D4B1A6A42F004024C
:100C9C001A621A6A42F001021A62CEE7FFF708FCE8
:100CAC000646474B1B6A13F0020F08D0FFF700FCF7
:100CBC00801B41F288339842F3D9032077E0E5B9E1
:100CCC00E369002B72D03E4A526802F00C02082AEB
:100CDC0056D0022B17D03B4B00221A60FFF7E8FBD3
:100CEC000446374B1B6813F0007F47D0FFF7E0FB3F
:100CFC00001B0228F5D9032059E0314AD36923F0AF
:100D0C008053D361DCE72F4B00221A60FFF7D0FB36
:100D1C0005462B4B1B6813F0007F06D0FFF7C8FB72
:100D2C00401B0228F5D9032041E0236AB3F5803F2C
:100D3C001AD023494B6823F47413226A606A024365
:100D4C0013434B601F4B01221A60FFF7B1FB0446A3
:100D5C001B4B1B6813F0007F0ED1FFF7A9FB001B88
:100D6C000228F5D9032022E0154A536823F40033F6
:100D7C00A1680B435360DCE7002018E0002016E06C
:100D8C00012B16D00E4B5B6803F48031226A914222
:100D9C0011D103F47013626A93420ED1002006E065
:100DAC0001207047012002E0012000E0002002B089
:100DBC0070BD0120FBE70120F9E70120F7E700BF38
:100DCC0000100240600042420F4B5B6803F00C02C3
:100DDC00082A01D00D487047C3F383420C498A5C42
:100DEC0013F4803F0BD0084B5B68C3F340430949B5
:100DFC00CB5C064800FB02F0B0FBF3F070470648F2
:100E0C0000FB02F0704700BF0010024000127A0095
:100E1C00181600082816000800093D00002800F0EC
:100E2C00A08070B50D460446524B1B6803F00703B7
:100E3C008B420BD24F4A136823F007030B4313600A
:100E4C00136803F007038B4240F08D80236813F086
:100E5C00020F17D013F0040F04D0474A536843F421
:100E6C00E0635360236813F0080F04D0424A5368C0
:100E7C0043F460535360404A536823F0F003A16875
:100E8C000B435360236813F0010F31D06368012BBF
:100E9C0020D0022B25D0384A126812F0020F64D0F1
:100EAC0035494A6822F0030213434B60FFF700FBFD
:100EBC000646314B5B6803F00C036268B3EB820FA0
:100ECC0016D0FFF7F5FA801B41F288339842F0D91F
:100EDC00032045E0284A126812F4003FE0D10120BB
:100EEC003EE0254A126812F0007FD9D1012037E08C
:100EFC00204B1B6803F00703AB420AD91D4A136849
:100F0C0023F007032B431360136803F00703AB4272
:100F1C002DD1236813F0040F06D0174A536823F41D
:100F2C00E063E1680B435360236813F0080F07D0AC
:100F3C00114A536823F46053216943EAC103536097
:100F4C00FFF742FF0C4B5B68C3F303130B4AD35CF4
:100F5C00D8400B4B18600B4B1868FFF765FA002054
:100F6C0070BD012070470120FAE70120F8E701204D
:100F7C00F6E700BF002002400010024000160008F7
:100F8C000000002008000020014B1868704700BFCB
:100F9C000000002008B5FFF7F7FF044B5B68C3F3B4
:100FAC000223034AD35CD84008BD00BF00100240A6
:100FBC001016000870B4036A026A22F00102026281
:100FCC004668826922F073020C6844EA020523F039
:100FDC0002028B6813430D4CA04209D00B4CA0426B
:100FEC000DD0466085614A684263036270BC7047ED
:100FFC0023F00803CA68134323F00403EEE726F436
:10100C0040764A6932438E691643EAE7002C014068
:10101C0030B4036A026A22F4807202624568C269C3
:10102C0022F073020C68224323F400738C6843EAA9
:10103C0004230F4CA04209D00D4CA0420ED04560A9
:10104C00C2614A68C263036230BC704723F4006318
:10105C00CC6843EA042323F48063EDE725F4405580
:10106C004C6945EA04158C6945EA0415E7E700BFAD
:10107C00002C014030B4036A026A22F480520262EE
:10108C004468C26922F4E6420D6842EA052223F460
:10109C0000538D6843EA0533074DA84206D04460DF
:1010AC00C2614A680264036230BC704724F4804415
:1010BC004D6944EA8514F2E7002C014003681B4A91
:1010CC0090420AD0B0F1804F07D0A2F594329042F2
:1010DC0003D002F58062904203D123F070034A687A
:1010EC001343124A90420AD0B0F1804F07D0A2F5B8
:1010FC009432904203D002F58062904203D123F4E3
:10110C004073CA68134323F080034A691343036096
:10111C008B68C3620B688362044B984202D0012334
:10112C00436170470B690363F9E700BF002C014072
:10113C0040B310B5044690F83D30F3B1022384F867
:10114C003D30214651F8040BFFF7B8FF012384F81A
:10115C00463084F83E3084F83F3084F8403084F8D0
:10116C00413084F8423084F8433084F8443084F8B9
:10117C00453084F83D30002010BD80F83C30FFF73E
:10118C001DF8DBE70120704730B4036A026A22F0D5
:10119C00100202624468826922F4E6420D6842EA57
:1011AC00052223F020038D6843EA05130E4DA84257
:1011BC0009D00D4DA8420ED0446082614A6882630A
:1011CC00036230BC704723F08003CD6843EA0513FB
:1011DC0023F04003EDE724F440644D6944EA8504B0
:1011EC008D6944EA8504E7E7002C014038B590F896
:1011FC003C30012B66D004460D46012380F83C3070
:10120C000C2A5AD8DFE802F0075959591B59595979
:10121C003059595944000068FFF7CCFE2268936995
:10122C0043F0080393612268936923F004039361EC
:10123C002268936929690B43936100203EE00068A2
:10124C00FFF7A2FF2268936943F40063936122685D
:10125C00936923F48063936122689369296943EA53
:10126C0001239361002029E00068FFF7D1FE22687A
:10127C00D36943F00803D3612268D36923F00403D4
:10128C00D3612268D36929690B43D361002015E02F
:10129C000068FFF7EFFE2268D36943F40063D36163
:1012AC002268D36923F48063D3612268D3692969E6
:1012BC0043EA0123D361002000E00120002384F8DD
:1012CC003C3038BD0220FCE710B401F01F010123B3
:1012DC0003FA01F4036A23EA04030362036A02FAC1
:1012EC0001F10B43036210BC7047000010B50446BB
:1012FC00084651BB94F83E30DBB2013B18BF0123CA
:10130C00002B5BD1002839D1022384F83E30012216
:10131C0001462068FFF7D8FF23682A4A93423DD044
:10132C002368284A93423ED0B3F1804F3BD0A2F5BC
:10133C009432934237D002F58062934233D01A68CC
:10134C0042F001021A60002039E0042908D0082973
:10135C000DD094F84130DBB2013B18BF0123CFE72D
:10136C0094F83F30DBB2013B18BF0123C8E794F877
:10137C004030DBB2013B18BF0123C1E7042805D084
:10138C00082807D0022384F84130C0E7022384F8F0
:10139C003F30BCE7022384F84030B8E75A6C42F483
:1013AC0000425A64BCE79A6802F00702062A07D08A
:1013BC001A6842F001021A60002000E0012010BD02
:1013CC000020FCE7002C0140FFF72CF80B480C49DF
:1013DC000C4A002302E0D458C4500433C4188C4285
:1013EC00F9D3094A094C002301E013600432A242EC
:1013FC00FBD300F00FF8FEF78CFF704700000020C5
:10140C003C0400203C1600083C040020640500202D
:10141C00FEE7000070B50D4E0D4D761BB61006D0D4
:10142C00002455F8043B01349847A642F9D1094EE3
:10143C00094D00F0D3F8761BB61006D0002455F8F1
:10144C00043B01349847A642F9D170BD3016000810
:10145C00301600083816000830160008F0B486075D
:10146C0046D0541E002A3CD00346CAB201E0013CCF
:10147C0037D303F8012B9D07F9D1032C2AD9CDB210
:10148C0045EA05250F2C45EA054534D9A4F110028F
:10149C0022F00F0C03F120071609674403F1100228
:1014AC0042E9045542E902551032BA42F8D1721C95
:1014BC0014F00C0F03EB021204F00F0613D0331FC1
:1014CC0023F003030433134442F8045B9342FBD12F
:1014DC0006F003042CB1CAB21C4403F8012B9C4245
:1014EC00FBD1F0BC704734461346002CF3D1F8E71F
:1014FC0014460346C1E71A462646E0E7024B13B1F1
:10150C00024800F005B870470000000029150008DB
:10151C00002301461A46184600F01AB838B5084B95
:10152C00084D5B1B9C1007D0043B1D44013C55F837
:10153C0004399847002CF9D1BDE8384000F054B874
:10154C003C16000838160008704700BF704700BFF3
:10155C002DE9F047DFF880A00646DAF8000098463F
:10156C000F469146FFF7F0FF1A4B1B68D3F8484122
:10157C0024B365681F2D26DC5EB96B1C0235DAF8C6
:10158C000000636044F82570FFF7E0FF0020BDE821
:10159C00F087012304EB8501C1F88890D4F88821E9
:1015AC00AB401A43022EC4F88821C1F80881E4D15B
:1015BC00D4F88C211343C4F88C31DEE703F5A67400
:1015CC00C3F84841D5E7DAF80000FFF7BFFF4FF04A
:1015DC00FF30DCE72C16000838040020F8B500BFFB
:1015EC00F8BC08BC9E467047F8B500BFF8BC08BCF8
:0415FC009E46704750
:1016000000000000000000000102030406070809B2
:101610000000000001020304020304050607080994
:101620000A0B0C0D0E0F101001020000100000201C
:08163000091500083101000852
:041638000D01000898
:10163C000024F40001000000100000000000000075
:10164C0000000000FC02002064030020CC030020FA
:10165C00000000000000000000000000000000007E
:10166C00000000000000000000000000000000006E
:10167C00000000000000000000000000000000005E
:10168C00000000000000000000000000000000004E
:10169C00000000000000000000000000000000003E
:1016AC00000000000000000000000000000000002E
:1016BC00000000000000000000000000000000001E
:1016CC00000000000000000000000000000000000E
:1016DC0000000000000000000000000000000000FE
:1016EC0000000000000000000100000000000000ED
:1016FC000E33CDAB34126DE6ECDE05000B000000B2
:10170C0000000000000000000000000000000000CD
:10171C0000000000000000000000000000000000BD
:10172C0000000000000000000000000000000000AD
:10173C00000000000000000000000000000000009D
:0C1A6C0000000000000000004005002009
:04000005080013D507
:00000001FF
