:020000040800F2
:1000000000500020B1140008690400086B040008C7
:100010006D0400086F04000871040008000000006F
:100020000000000000000000000000007304000851
:100030007504000800000000770400087904000837
:10004000F9140008F9140008F9140008F91400085C
:10005000F9140008F9140008F9140008F91400084C
:10006000F9140008F9140008F9140008F91400083C
:10007000F9140008F9140008F9140008F91400082C
:10008000F9140008F9140008F9140008F91400081C
:10009000F9140008F9140008F9140008F91400080C
:1000A000F9140008F9140008F9140008F9140008FC
:1000B000F9140008F9140008F9140008F9140008EC
:1000C000F9140008F9140008F9140008F9140008DC
:1000D000F9140008F9140008F9140008F9140008CC
:1000E000F9140008F9140008F914000800000000D1
:1000F0000000000000000000000000000000000000
:0C01000000000000000000005FF808F1A3
:10010C0010B5054C237833B9044B13B10448AFF345
:10011C0000800123237010BD540400200000000057
:10012C002416000808B5034B1BB103490348AFF371
:10013C00008008BD000000005804002024160008B0
:10014C0010B584B000240EE04FF4807302930123A9
:10015C000193074A2244009200227821054800F0BE
:10016C00DBFD0134E4B21A2CEED904B010BD00BF93
:10017C00000000207004002000B587B08DF8170037
:10018C004FF480730293012301930DF11702009237
:10019C0000227821024800F0BFFD07B05DF804FB97
:1001AC007004002000B587B08DF817004FF48073F1
:1001BC000293012301930DF1170200924022782142
:1001CC00024800F0A9FD07B05DF804FB70040020A4
:1001DC0008B5C82000F09AF9FFF7B2FF08BD38B592
:1001EC00002501E00135EDB2072D14D8A5F1500022
:1001FC00C0B2FFF7C1FF0020FFF7BEFF1020FFF7D2
:10020C00BBFF002414F0800FECD10020FFF7CAFFD5
:10021C000134E4B2F6E738BD10B50446A1F1500044
:10022C00C0B2FFF7A9FF200940F01000FFF7A4FFB0
:10023C0004F00F00FFF7A0FF10BD0000F8B5074653
:10024C000E461546FFF7E8FF00240F2C08D80E4B7E
:10025C0003EB8513185DFFF7A5FF0134E4B2F4E757
:10026C00711CC9B23846FFF7D7FF00240F2C0AD8EF
:10027C006B00591C044B03EB4113185DFFF792FF05
:10028C000134E4B2F2E7F8BD3C16000884B00F4B21
:10029C009A6942F020029A619A6902F02002019256
:1002AC00019A9A6942F004029A619A6902F0040276
:1002BC000292029A9A6942F008029A619B6903F0D1
:1002CC0008030393039B04B0704700BF0010024067
:1002DC0072B6FEE708B50A480A4B03600A4B436046
:1002EC0000238360C3604FF48042026143618361E9
:1002FC00C361036200F032FC00B908BDFFF7E8FFF0
:10030C007004002000540040A086010000B591B09C
:10031C00002309930B930C9301930293039304937F
:10032C000593012106914FF48032079208930A91AC
:10033C0002210D910E920F9306A800F0B5FD70B935
:10034C000F23019302230293002103910491059141
:10035C0001A800F0DBFF20B911B05DF804FBFFF73A
:10036C00B7FFFFF7B5FF08B500F0ACF8FFF7CEFF0D
:10037C00FFF78CFFFFF7AEFFFFF72AFFFFF72FFF0A
:10038C00002202211046FFF759FF01220221102002
:10039C00FFF754FF022211462020FFF74FFF0322E4
:1003AC0002213020FFF74AFF042202214020FFF7F0
:1003BC0045FFE5E782B00E4B9A6942F001029A6163
:1003CC009A6902F001020092009ADA6942F08052B6
:1003DC00DA61DB6903F080530193019B054A536892
:1003EC0023F0E06343F00073536002B0704700BF2A
:1003FC00001002400000014010B586B000230293AB
:10040C000393049305930268114B9A4201D006B0F2
:10041C0010BD104CA36943F00803A361A36903F05A
:10042C0008030093009BC02302931223039303231E
:10043C00059302A9084800F0D9F8E36943F40013C6
:10044C00E361E36903F400130193019BDFE700BF51
:10045C000054004000100240000C0140FEE7FEE793
:10046C00FEE7FEE7FEE770477047704708B500F0FF
:10047C003BF808BD7047000010B504460E4B1878C9
:10048C004FF47A73B3FBF0F30C4A1068B0FBF3F043
:10049C0000F096F868B90F2C01D901200AE000226F
:1004AC0021464FF0FF3000F057F8054B1C60002040
:1004BC0000E0012010BD00BF200000201C00002027
:1004CC002400002008B5074A136843F0100313609A
:1004DC00032000F02FF80F20FFF7CEFFFFF76AFF85
:1004EC00002008BD00200240034A1168034B1B7812
:1004FC000B441360704700BFC40400202000002090
:10050C00014B1868704700BFC404002038B504467E
:10051C00FFF7F6FF0546B4F1FF3F02D0044B1B7802
:10052C001C44FFF7EDFF401BA042FAD338BD00BFBF
:10053C0020000020074AD36823F4E0631B041B0C43
:10054C00000200F4E060034343F0BF6343F4003364
:10055C00D360704700ED00E030B4174BDB68C3F399
:10056C000223C3F10704042C28BF04241D1D062DEF
:10057C0018D9033B4FF0FF3505FA04F421EA0401C6
:10058C00994005FA03F322EA0303194300280BDB15
:10059C000901C9B200F1604000F5614080F8001318
:1005AC0030BC70470023E5E700F00F000901C9B229
:1005BC00024B1954F4E700BF00ED00E014ED00E02D
:1005CC000138B0F1807F0AD2064B5860064AF02100
:1005DC0082F823100020986007221A6070470120CF
:1005EC00704700BF10E000E000ED00E0F0B482B016
:1005FC0000252C46A3E07F4FBB4210D007D97E4F7D
:10060C00BB420CD007F58037BB4208D013E0A7F5EE
:10061C008017BB4203D007F57027BB4207D18B680C
:10062C00002B58D0012B51D04261082503E0A7F5CF
:10063C008017BB42F3D0FF2E4FD88446FF2E4FD8E5
:10064C00A200DCF800300F27974023EA070305FAD5
:10065C0002F21343CCF800304B6813F0805F6DD07E
:10066C00664B9A6942F001029A619B6903F001039F
:10067C000193019BA208971C614B53F8273004F09F
:10068C000307BF004FF00F0C0CFA07FC23EA0C0C0D
:10069C005C4B98422AD003F58063984200F08A8024
:1006AC0003F58063984200F0878003F580639842DD
:1006BC001AD004231BE0CD68BDE7CD680435BAE73A
:1006CC00CD680835B7E7CD680C35B4E7026108256D
:1006DC00B1E70025AFE70425ADE700F1040CADE769
:1006EC00A4F108029200ACE7032300E00023BB4016
:1006FC0043EA0C030232424F47F822304B6813F4A2
:10070C00801F5BD0404A9368334393604B6813F46B
:10071C00001F59D03C4AD3683343D3604B6813F461
:10072C00003F57D0384A5368334353604B6813F437
:10073C00803F55D0344A13681E43166001340B6851
:10074C0033FA04F252D00122A24003EA020632EA42
:10075C000303F3D14B68122B3FF64DAF122B3FF630
:10076C006AAF01A757F823F02B060008C306000850
:10077C00CD060008DF060008430600084306000803
:10078C004306000843060008430600084306000819
:10079C004306000843060008430600084306000809
:1007AC00430600084306000843060008C706000875
:1007BC00D306000801239AE7022398E7124A9368AC
:1007CC0023EA06039360A1E70F4AD36823EA0603E2
:1007DC00D360A3E70C4A536823EA06035360A5E7EA
:1007EC00094A136823EA06061660A7E702B0F0BCB4
:1007FC00704700BF000022100000311000100240B2
:10080C0000000140000801400004014003685A69DF
:10081C0012F4806F01D1002070476FF480625A612E
:10082C0000230363202280F83D2080F83E30026CC8
:10083C0042F00402026480F83C30012070472DE93C
:10084C00F04780460D461646994640E0FFF758FEA5
:10085C00089BC01A484502D8B9F1000F37D1012FB7
:10086C001CD0D8F800309B6925EA03039BB2B3FA7D
:10087C0083F35B099A452AD10023C8F83030202233
:10088C0088F83D2088F83E30D8F8402042F020020D
:10089C00C8F8402088F83C30012027E0D8F8003018
:1008AC005B6925EA03039BB2B3FA83F35B09E1E7C7
:1008BC00D8F800309C6925EA0404A4B2B4FA84F494
:1008CC006409B246A64210D1B9F1FF3FBED1C5F3BF
:1008DC000747012FECD1D8F800305C6925EA0404F5
:1008EC00A4B2B4FA84F46409EBE70020BDE8F08705
:1008FC002DE9F84305460E469046994653E01A6892
:10090C0042F400721A602B686FF480625A61002303
:10091C002B63202285F83D2085F83E302A6C42F06E
:10092C0004022A6485F83C3001204AE0FFF7E8FD18
:10093C00A0EB0900404502D8B8F1000F33D1012FCC
:10094C0017D02B689B6926EA03039BB2003B18BFA8
:10095C00012343B300232B63202285F83D2085F827
:10096C003E302A6C42F020022A6485F83C3001208B
:10097C0027E02B685B6926EA03039BB2003B18BF98
:10098C000123E6E72B689C6926EA0404A4B2003C28
:10099C0018BF0124A4B12B685A6912F4806FAED130
:1009AC00B8F1FF3FC2D1C6F30747012FEAD12B683C
:1009BC005C6926EA0404A4B2003C18BF0124E9E7F0
:1009CC000020BDE8F88370B504460D461646236832
:1009DC005B6913F0800F21D12046FFF717FFF8B9A0
:1009EC00B5F1FF3FF3D0FFF78BFD801BA84201D878
:1009FC00002DECD123685B6913F0800FE7D1002345
:100A0C002363202284F83D2084F83E30226C42F08F
:100A1C002002226484F83C30012000E0002070BDEC
:100A2C000120FCE72DE9F04385B004460D469146C4
:100A3C001F46DDF830800D9E0368196841F4807103
:100A4C0019600096434600224FF00111FFF7F7FEA4
:100A5C0060B9236805F0FE051D6133464246264900
:100A6C002046FFF745FF68B1012008E023681B68AA
:100A7C0013F4807F02D04FF400732364032005B07D
:100A8C00BDE8F0830023039323685A6903929B69A2
:100A9C000393039B324641462046FFF794FF30B93F
:100AAC00012F0FD123685FFA89F61E61E7E7236CEB
:100ABC00042B01D00120E2E72268136843F4007391
:100ACC001360F7E723684FEA19221A613246414650
:100ADC002046FFF778FF20B923685FFA89F61E617C
:100AEC00CDE7236C042B01D00120C8E722681368E2
:100AFC0043F400731360F7E70200010070B504467D
:100B0C000D46164623685B6913F0040F21D120466D
:100B1C00FFF77CFEF8B9B5F1FF3FF3D0FFF7F0FC1F
:100B2C00801BA84201D8002DECD123685B6913F01F
:100B3C00040FE7D100232363202284F83D2084F89E
:100B4C003E30226C42F02002226484F83C300120BA
:100B5C0000E0002070BD0120FCE70000002800F040
:100B6C00CC80F8B5044690F83D30002B77D0242388
:100B7C0084F83D302268136823F001031360226867
:100B8C00136843F4004313602268136823F4004392
:100B9C00136000F077FC62685A4B9A4264D85A4B47
:100BAC0098428CBF00230123002B40F0A880574DA6
:100BBC00A5FB0035AF0C2668716821F03F0141EAB6
:100BCC009541716021680B6A23F03F0365684D4ABB
:100BDC0095424FD87A1C13430B622568E96921F4BE
:100BEC004F4121F0FF016368464A93424CD80138CB
:100BFC005B00B0FBF3F0013040F6FC73184278D088
:100C0C00C0F30B030B43EB6121680B6823F0C003AB
:100C1C00E269206A024313430B6021688B6823F45A
:100C2C00034323F0FF032269E068024313438B6004
:100C3C002168CB6823F0FF036269A0690243134368
:100C4C00CB602268136843F001031360002020641A
:100C5C00202384F83D30206384F83E00F8BD80F8F2
:100C6C003C30FFF7C9FB82E7294B98428CBF00232D
:100C7C00012399E74FF4967202FB07F2254DA5FB71
:100C8C00025292090132A6E7A268BAB9461E03EBDA
:100C9C004307B6FBF7F60136C6F30B06B6FA86F633
:100CAC00760946BBC2B9421E03EB4303B2FBF3F217
:100CBC000132C2F30B0242F40043A3E7461E03EBDE
:100CCC00830707EB8707B6FBF7F60136C6F30B066F
:100CDC00B6FA86F67609E4E7421E03EB830303EBD0
:100CEC008303B2FBF3F20132C2F30B0242F4404332
:100CFC0088E7042386E7012384E70120704701205D
:100D0C00ACE700BFA08601007F841E0083DE1B437E
:100D1C00FF083D00D34D62102DE9F04383B004462B
:100D2C000F46904699460C9EFFF7EAFB054694F851
:100D3C003D00C0B2202803D0022003B0BDE8F083F0
:100D4C000095192301224B492046FFF778FD002816
:100D5C0040F0898094F83C30012B00F08680012310
:100D6C0084F83C3023681A6812F0010F03D11A681A
:100D7C0042F001021A602268136823F400631360C6
:100D8C00212384F83D30402384F83E300023236433
:100D9C000A9B6362BDF82C306385638D2385364BCB
:100DAC00E362019500964B46424639462046FFF7D2
:100DBC0039FE00285BD1238D002B35D02A463146D5
:100DCC002046FFF700FE20BB626A236812781A6186
:100DDC00616A4B1C6362228D013A92B22285638D4B
:100DEC009BB2013B9BB263852368586910F0040FDA
:100DFC00E1D0002ADFD04A781A61636A013363625A
:100E0C00238D013B2385638D9BB2013B9BB2638594
:100E1C00D1E7236C042B01D001208EE722681368E4
:100E2C0043F400731360F7E72A4631462046FFF778
:100E3C0065FE50B1236C042B01D001207DE72268A4
:100E4C00136843F400731360F7E72268136843F4E4
:100E5C0000731360202384F83D30002384F83E3067
:100E6C0084F83C3069E7022067E7022065E701203F
:100E7C0063E700BF020010000000FFFF82B0084BC8
:100E8C001B68084AA2FB03235B0A00FB03F30193D4
:100E9C0000BF019B5A1E0192002BF9D102B0704782
:100EAC001C000020D34D6210002800F0F18170B5B9
:100EBC0082B00446036813F0010F2CD0AA4B5B6878
:100ECC0003F00C03042B1DD0A74B5B6803F00C0341
:100EDC00082B12D06368B3F5803F41D0002B55D15D
:100EEC0003F1804303F504331A6822F480321A604C
:100EFC001A6822F480221A6037E09B4B5B6813F46B
:100F0C00803FE7D0984B1B6813F4003F03D0636815
:100F1C00002B00F0BF81236813F0020F75D0924BA9
:100F2C005B6813F00C0F5FD08F4B5B6803F00C0306
:100F3C00082B54D02369002B00F089808B4B0122A5
:100F4C001A60FFF7DDFA0546874B1B6813F0020F9A
:100F5C0074D1FFF7D5FA401B0228F5D903209EE186
:100F6C00814A136843F480331360636843B3FFF71B
:100F7C00C7FA05467C4B1B6813F4003FCBD1FFF737
:100F8C00BFFA401B6428F5D9032088E1B3F5A02FE4
:100F9C0009D0754B1A6822F480321A601A6822F450
:100FAC0080221A60E1E703F18043A3F53C331A6811
:100FBC0042F480221A601A6842F480321A60D4E734
:100FCC00FFF79EFA0546684B1B6813F4003FA2D04E
:100FDC00FFF796FA401B6428F5D903205FE1624BBA
:100FEC005B6813F4803FA5D15F4B1B6813F0020FB5
:100FFC0003D02369012B40F04F815B4A136823F027
:10100C00F803616943EAC1031360236813F0080F06
:10101C0032D0A369002B45D0554B01221A60FFF743
:10102C006FFA0546504B5B6A13F0020F21D1FFF7A4
:10103C0067FA401B0228F5D9032030E14A4A1368AD
:10104C0023F0F803616943EAC1031360DDE7474B02
:10105C0000221A60FFF754FA0546434B1B6813F045
:10106C00020FD2D0FFF74CFA401B0228F5D903200F
:10107C0015E10120FFF702FF236813F0040F00F0C5
:10108C009780394BDB6913F0805F1DD1364BDA69E1
:10109C0042F08052DA61DB6903F080530193019BCB
:1010AC00012512E0324B00221A60FFF729FA05469F
:1010BC002D4B5B6A13F0020FDED0FFF721FA401BB9
:1010CC000228F5D90320EAE000252A4B1B6813F40B
:1010DC00807F11D0E368012B22D0002B38D103F193
:1010EC00804303F504331A6A22F001021A621A6A69
:1010FC0022F004021A6218E01E4A136843F480734B
:10110C001360FFF7FDF906461A4B1B6813F4807F3A
:10111C00E0D1FFF7F5F9801B6428F5D90320BEE078
:10112C00114A136A43F001031362E36873B3FFF7C8
:10113C00E7F906460C4B1B6A13F0020F37D1FFF789
:10114C00DFF9801B41F288339842F3D90320A6E0E3
:10115C00052B11D0044B1A6A22F001021A621A6A8A
:10116C0022F004021A62E0E7001002400000424242
:10117C0080044242007000404D4B1A6A42F0040257
:10118C001A621A6A42F001021A62CEE7FFF7B8F946
:10119C000646474B1B6A13F0020F08D0FFF7B0F955
:1011AC00801B41F288339842F3D9032077E0E5B9EC
:1011BC00E369002B72D03E4A526802F00C02082AF6
:1011CC0056D0022B17D03B4B00221A60FFF798F930
:1011DC000446374B1B6813F0007F47D0FFF790F99C
:1011EC00001B0228F5D9032059E0314AD36923F0BA
:1011FC008053D361DCE72F4B00221A60FFF780F994
:10120C0005462B4B1B6813F0007F06D0FFF778F9CF
:10121C00401B0228F5D9032041E0236AB3F5803F37
:10122C001AD023494B6823F47413226A606A024370
:10123C0013434B601F4B01221A60FFF761F9044600
:10124C001B4B1B6813F0007F0ED1FFF759F9001BE5
:10125C000228F5D9032022E0154A536823F4003301
:10126C00A1680B435360DCE7002018E0002016E077
:10127C00012B16D00E4B5B6803F48031226A91422D
:10128C0011D103F47013626A93420ED1002006E070
:10129C0001207047012002E0012000E0002002B094
:1012AC0070BD0120FBE70120F9E70120F7E700BF43
:1012BC0000100240600042420F4B5B6803F00C02CE
:1012CC00082A01D00D487047C3F383420C498A5C4D
:1012DC0013F4803F0BD0084B5B68C3F340430949C0
:1012EC00CB5C064800FB02F0B0FBF3F070470648FD
:1012FC0000FB02F0704700BF0010024000127A00A1
:10130C0094170008A417000800093D00002800F0FD
:10131C00A08070B50D460446524B1B6803F00703C2
:10132C008B420BD24F4A136823F007030B43136015
:10133C00136803F007038B4240F08D80236813F091
:10134C00020F17D013F0040F04D0474A536843F42C
:10135C00E0635360236813F0080F04D0424A5368CB
:10136C0043F460535360404A536823F0F003A16880
:10137C000B435360236813F0010F31D06368012BCA
:10138C0020D0022B25D0384A126812F0020F64D0FC
:10139C0035494A6822F0030213434B60FFF7B0F85B
:1013AC000646314B5B6803F00C036268B3EB820FAB
:1013BC0016D0FFF7A5F8801B41F288339842F0D97C
:1013CC00032045E0284A126812F4003FE0D10120C6
:1013DC003EE0254A126812F0007FD9D1012037E097
:1013EC00204B1B6803F00703AB420AD91D4A136854
:1013FC0023F007032B431360136803F00703AB427E
:10140C002DD1236813F0040F06D0174A536823F428
:10141C00E063E1680B435360236813F0080F07D0B7
:10142C00114A536823F46053216943EAC1035360A2
:10143C00FFF742FF0C4B5B68C3F303130B4AD35CFF
:10144C00D8400B4B18600B4B1868FFF715F80020B1
:10145C0070BD012070470120FAE70120F8E7012058
:10146C00F6E700BF00200240001002407C17000885
:10147C001C00002024000020014B1868704700BF9E
:10148C001C00002008B5FFF7F7FF044B5B68C3F3A3
:10149C000223034AD35CD84008BD00BF00100240B1
:1014AC008C170008FEF7E6FF0B480C490C4A00238A
:1014BC0002E0D458C4500433C4188C42F9D3094AFE
:1014CC00094C002301E013600432A242FBD300F06C
:1014DC000FF8FEF748FF704700000020540400206E
:1014EC00B817000854040020EC040020FEE70000AC
:1014FC0070B50D4E0D4D761BB61006D0002455F868
:10150C00043B01349847A642F9D1094E094D00F02D
:10151C0083F8761BB61006D0002455F8043B013432
:10152C009847A642F9D170BDAC170008AC1700085B
:10153C00B4170008AC170008024B13B1024800F0B6
:10154C0005B870470000000065150008002301462F
:10155C001A46184600F01AB838B5084B084D5B1BF4
:10156C009C1007D0043B1D44013C55F804399847A6
:10157C00002CF9D1BDE8384000F054B8B817000879
:10158C00B4170008704700BF704700BF2DE9F04743
:10159C00DFF880A00646DAF8000098460F46914620
:1015AC00FFF7F0FF1A4B1B68D3F8484124B365686A
:1015BC001F2D26DC5EB96B1C0235DAF80000636067
:1015CC0044F82570FFF7E0FF0020BDE8F087012309
:1015DC0004EB8501C1F88890D4F88821AB401A43FC
:1015EC00022EC4F88821C1F80881E4D1D4F88C21EA
:1015FC001343C4F88C31DEE703F5A674C3F84841F5
:10160C00D5E7DAF80000FFF7BFFF4FF0FF30DCE75B
:10161C00A817000850040020F8B500BFF8BC08BC9F
:10162C009E467047F8B500BFF8BC08BC9E46704794
:10163C0020242424FE23222020FF20222CA0200062
:10164C00000000000000000000000000000000008E
:10165C00000848847F02414020130C142241F800FA
:10166C00000000000000000000000000000000006E
:10167C0080642C342424EC322222322E23A26000EB
:10168C00000000000000000000000000000000004E
:10169C000041219189874D552525554D818080002C
:1016AC00000000000000000000000000000000002E
:1016BC000202E22222FE222222FE2222E202020068
:1016CC00000000000000000000000000000000000E
:1016DC000000FF484443404040434444FF000000A6
:1016EC0000000000000000000000000000000000EE
:1016FC0000809F9555551515959595959F800000E3
:10170C0000000000000000000000000000000000CD
:10171C00003F101008080000FF000010201F000000
:10172C0000000000000000000000000000000000AD
:10173C00000000FE0000000000000000000000009F
:10174C00000000000000000000000000000000008D
:10175C00000000330000000000000000000000004A
:10176C00000000000000000000000000000000006D
:10177C000000000000000000010203040607080935
:10178C000000000001020304020304050607080917
:10179C000A0B0C0D0E0F1010010200002800002087
:0817AC00451500083101000899
:0417B4000D0100081B
:1017B800AE001040B081FFA1A6A83FC8D300D580D5
:1017C800D805D9F1DA12D8308D14AF000024F4000E
:1017D80001000000100000000000000014030020B9
:1017E8007C030020E403002000000000000000004B
:1017F80000000000000000000000000000000000E1
:1018080000000000000000000000000000000000D0
:1018180000000000000000000000000000000000C0
:1018280000000000000000000000000000000000B0
:1018380000000000000000000000000000000000A0
:101848000000000000000000000000000000000090
:101858000000000000000000000000000000000080
:101868000000000000000000000000000000000070
:101878000000000000000000000000000000000060
:1018880001000000000000000E33CDAB34126DE6FD
:10189800ECDE05000B000000000000000000000066
:1018A8000000000000000000000000000000000030
:1018B8000000000000000000000000000000000020
:1018C8000000000000000000000000000000000010
:1018D8000000000000000000000000000000000000
:041C0800C8040020EC
:04000005080014B12A
:00000001FF
